:100000000C942A000C943F000C943F000C943F0089
:100010000C943F000C943F000C943F000C943F0064
:100020000C943F000C943F000C943F000C943F0054
:100030000C943F000C943F000C943F000C943F0044
:100040000C943F000C943F000C943F000C943F0034
:100050000C943F0011241FBECFE5D8E0DEBFCDBF1A
:1000600010E0A0E6B0E0E8EFFCE002C005900D92E1
:10007000A837B107D9F70E945A010C947A060C945C
:1000800000008295807F9BB39F709BBB9BB3982B96
:100090009BBB98B39F7098BB98B3982B98BB95B3B4
:1000A0009F7095BB95B3982B95BB92B39F7092BBF5
:1000B00092B3892B82BB089583B984E886BF06B6C4
:1000C00007FEFDCF81B1887F883141F081B1887F03
:1000D000803421F081B1887F90E0089590E080E045
:1000E000089584EA86BF06B607FEFDCF81B1887FFA
:1000F000883041F081B1887F803121F081B1887FE3
:1001000090E0089590E080E008950F931F93CF93BF
:10011000DF93EC01062F142F0E947100009799F4D1
:1001200080ED0E945C00009771F4FE01602F70E08A
:10013000A4E89F012C1B3D0B261737074CF011112B
:1001400002C024E926BFDF91CF911F910F9108953E
:10015000219123B9A6BF06B607FEFDCF21B1287FA6
:10016000283239F321B1287F422F50E011F3CA0120
:10017000EACFC39A8FE39FE10197F1F700C0000037
:10018000C3988FE39FE10197F1F700C00000089545
:10019000CF93C82F85958595859585950E944100BB
:1001A000C1980E94B9008C2F0E944100C1980E9402
:1001B000B9008FE99FE00197F1F700C00000CF91EF
:1001C0000895FF920F931F93CF93DF93CDB7DEB7C0
:1001D000A0970FB6F894DEBF0FBECDBF9E01285D7D
:1001E0003F4FF901419151919F0160E270E0CE01D2
:1001F00001960E9499038E010F5F1F4FF801F19045
:100200008F01F1100CC0A0960FB6F894DEBF0FBEA0
:10021000CDBFDF91CF911F910F91FF9008958F2D4A
:1002200085958595859585950E944100C19A0E9486
:10023000B9008F2D0E944100C19A0E94B9008FE938
:100240009FE00197F1F700C00000D8CFCF93DF9374
:10025000EC010E947100009731F581ED0E945C0075
:10026000009709F5FE01AE014B5F5F4F34EC36BFDE
:1002700006B607FEFDCF21B1287F2035B9F021B1A8
:10028000287F21934E175F0791F724E826BF06B613
:1002900007FEFDCF21B1287F283551F021B1287FFD
:1002A0002D8324E926BFDF91CF91089523B1E9CFB3
:1002B00023B1F6CFCF93DF9300D000D000D0CDB7DD
:1002C000DEB72FEF83EC99E0215080409040E1F7BA
:1002D00000C00000D49AD59AD69AD79ABB9ABA9AF7
:1002E000B99AC29882E00E94C8008FE39CE9019706
:1002F000F1F700C0000088E20E94C8008FE99FE08B
:100300000197F1F700C000008EE00E94C8008FE95D
:100310009FE00197F1F700C0000081E00E94C80053
:100320008FE39CE90197F1F700C0000086E00E948E
:10033000C8008FE99FE00197F1F700C0000084B387
:10034000806384BB85B3806385BB84B38F7C84BBAF
:100350008CE080B98BE689831A8240E062E0CE01AE
:1003600001960E948500892B09F0FFCF00E610E07E
:1003700088E6282E80E0382E9BE3998341E061E0F7
:10038000CE0101960E948500892B09F0FFCFCE0196
:1003900001960E942601892B09F0FFCF69817A819D
:1003A000762767277627072E000C880B990B0E946B
:1003B000A00220E030E040E858E30E9404032B0153
:1003C0003C016B817C81762767277627072E000CFE
:1003D000880B990B0E94A00220E030E040E858E32F
:1003E0000E9404034B015C016D817E8176276727A3
:1003F0007627072E000C880B990B0E94A00220E0A4
:1004000030E040E858E30E9404036B017C0123ECD8
:1004100035EF4CE151E4C301B2010E9404032B010A
:100420003C0123EC35EF4CE151E4C501B4010E94DD
:1004300004034B015C0123EC35EF4CE151E4C701AF
:10044000B6010E9404036B017C0123E4298341E08F
:1004500061E0CE0101960E948500892B09F0FFCF53
:10046000CE0101960E942601892B09F0FFCF80E87A
:100470000E94C800C301B2010E946F027F936F9374
:100480001F930F930E94E10080EC0E94C800C501F9
:10049000B4010E946F027F936F933F922F920E944C
:1004A000E10088EC0E94C800C701B6010E946F02FB
:1004B0007F936F9380E790E09F938F930E94E1007A
:1004C0008FEF93EC29E0815090402040E1F700C08D
:1004D00000000FB6F894DEBF0FBECDBF4DCF0E9417
:1004E000E30288F09F5798F0B92F9927B751B0F0E1
:1004F000E1F0660F771F881F991F1AF0BA95C9F7A8
:1005000014C0B13091F00E94FD02B1E008950C9446
:10051000FD02672F782F8827B85F39F0B93FCCF3F9
:10052000869577956795B395D9F73EF49095809524
:10053000709561957F4F8F4F9F4F0895E89409C044
:1005400097FB3EF490958095709561957F4F8F4F06
:100550009F4F9923A9F0F92F96E9BB279395F6951C
:10056000879577956795B795F111F8CFFAF4BB0F9A
:1005700011F460FF1BC06F5F7F4F8F4F9F4F16C0FE
:10058000882311F096E911C0772321F09EE8872F88
:10059000762F05C0662371F096E8862F70E060E044
:1005A0002AF09A95660F771F881FDAF7880F9695BD
:1005B000879597F9089557FD9058440F551F59F0A6
:1005C0005F3F71F04795880F97FB991F61F09F3F40
:1005D00079F087950895121613061406551FF2CF69
:1005E0004695F1DF08C0161617061806991FF1CFB9
:1005F00086957105610508940895E894BB276627E0
:100600007727CB0197F908950E9417030C9488036C
:100610000E947A0338F00E94810320F0952311F0A4
:100620000C9471030C94770311240C94FE020E9425
:10063000DB0270F3959FC1F3950F50E0551F629F49
:10064000F001729FBB27F00DB11D639FAA27F00D2B
:10065000B11DAA1F649F6627B00DA11D661F829F52
:100660002227B00DA11D621F739FB00DA11D621F37
:10067000839FA00D611D221F749F3327A00D611D54
:10068000231F849F600D211D822F762F6A2F112436
:100690009F5750409AF0F1F088234AF0EE0FFF1F69
:1006A000BB1F661F771F881F91505040A9F79E3FC0
:1006B000510580F00C9471030C94FE025F3FE4F34B
:1006C000983ED4F3869577956795B795F795E79516
:1006D0009F5FC1F7FE2B880F911D9695879597F91F
:1006E000089597F99F6780E870E060E008959FEFB4
:1006F00080EC089500240A941616170618060906B9
:10070000089500240A941216130614060506089587
:10071000092E0394000C11F4882352F0BB0F40F40F
:10072000BF2B11F460FF04C06F5F7F4F8F4F9F4F4F
:100730000895AEE0B0E0EFE9F3E00C9451068C01CF
:10074000FA0186E08C831A83098377FF02C060E098
:1007500070E8615071097E836D83A901BF01CE01EC
:1007600001960E94C5034D815E8157FD0AC02F810D
:100770003885421753070CF49A01020F131FF80132
:1007800010822E96E4E00C946D06ABE0B0E0EBEC4A
:10079000F3E00C9443067C013B018A01FC011782C3
:1007A0001682838181FFC8C1CE0101965C01F701E9
:1007B0009381F30193FD859193FF81913F018823FC
:1007C00009F453C1853239F493FD859193FF8191EA
:1007D0003F01853229F4B70190E00E94B505E7CFCB
:1007E000912C212C312CFFE1F31538F08B3211F1D3
:1007F00090F4803209F1833229F137FC3CC020EDBE
:10080000280F2A3050F536FE20C08AE0989E200D31
:100810001124922E06C08D3291F0803371F76894C6
:1008200030F8F30193FD859193FF81913F01811190
:10083000DACF21C0689431F8689432F8F2CF689426
:1008400033F8EFCF689434F8ECCFEAE02E9E200D19
:100850001124222E689435F8E4CF8E3229F436FC28
:1008600004C1689436F8DDCF8C3619F4689437F8F3
:10087000D8CF8836B1F2982F9F7D95549330E0F011
:100880008336A1F18337C1F1833509F063C02801B4
:10089000F2E04F0E511CF801C080D180692D70E04C
:1008A00036FC02C06FEF7FEFC6010E949F054C012E
:1008B000689437F882010AC00C5F1F4FFFE3F98389
:1008C00088248394912C6501E89437F833FE2DC079
:1008D000522C8114910471F5552009F468CFB701A9
:1008E00080E290E00E94B5055A94F6CFF80180812D
:1008F00089830E5F1F4FE4CF2801F2E04F0E511C99
:10090000F801C080D180692D70E036FC02C06FEF25
:100910007FEFC6010E94AA054C018201D5CFB70125
:1009200080E290E00E94B5052A942814190409F089
:10093000B0F7CECFF60137FC859137FE81916F017C
:10094000B70190E00E94B50551105A94F1E08F1A5A
:100950009108BFCF843619F0893609F077C0F801C5
:1009600037FE6BC060817181828193810C5F1F4F64
:10097000F32DFF763F2E97FF09C0909580957095D7
:1009800061957F4F8F4F9F4F689437F82AE030E092
:10099000A5010E94E505C82ECA188C2C432C36FEF2
:1009A0000CC0E89440F8C91440F434FE05C032FC91
:1009B00003C0F32DFE7E4F2E892C44FE95C0FE0110
:1009C000EC0DF11D8081803309F087C0242D297E34
:1009D000422E842D8870582E43FC95C040FE8FC057
:1009E0009C2C821418F42C0C922C981844FE91C064
:1009F000B70180E390E00E94B50542FE09C088E798
:100A000090E041FE02C088E590E0B7010E94B50584
:100A1000C91408F48AC0CA94D12C9FEFC91AD90A04
:100A2000CA0CDB1CF60182916F01B70190E00E94B5
:100A3000B505AC14BD04B1F74FCF60817181072EAD
:100A4000000C880B990B0E5F1F4F92CFD32CE894AC
:100A5000D4F82AE030E0853739F1232D297FD22ED2
:100A60008F3601F148F48835A9F0F7018681978126
:100A70002B96E2E10C945F06803749F08837A9F79E
:100A8000D4FE02C06894D2F820E130E00DC0689432
:100A9000D4F8F6CF34FE03C0822F8660D82E20E132
:100AA00032E002C028E030E0F801D7FE0FC06081DC
:100AB0007181828193810C5F1F4FA5010E94E50522
:100AC000C82ECA183D2CE89437F867CF6081718131
:100AD00090E080E00E5F1F4FF0CF42FC02C0839495
:100AE00078CF8394839475CF842D867809F471CF61
:100AF000F6CFB70180E290E00E94B505839482149E
:100B0000C0F3512C73CF522C5818821408F46ECFB6
:100B1000F8CF842D867809F47BCF8BE241FE80E20A
:100B200047FC8DE2B70190E071CFB70180E390E020
:100B30000E94B5059A946CCF8FEF9FEF99CFFC017F
:100B40000590615070400110D8F7809590958E0FF8
:100B50009F1F0895FC016150704001900110D8F76B
:100B6000809590958E0F9F1F08950F931F93CF939D
:100B7000DF93182F092FEB018B8181FD09C01FEF37
:100B80000FEF812F902FDF91CF911F910F9108953B
:100B900082FF14C02E813F818C819D8128173907E7
:100BA0003CF4E881F981CF01019699838883108311
:100BB0008E819F8101969F838E83E3CFE885F9859F
:100BC000812F0995892BA1F3DACFFA01AA272830C2
:100BD00051F1203181F1E8946F936E7F6E5F7F4F0A
:100BE0008F4F9F4FAF4FB1E03ED0B4E03CD0670F86
:100BF000781F891F9A1FA11D680F791F8A1F911DD9
:100C0000A11D6A0F711D811D911DA11D20D009F428
:100C100068943F912AE0269F11243019305D31936A
:100C2000DEF6CF010895462F4770405D4193B3E053
:100C30000FD0C9F7F6CF462F4F70405D4A3318F0FA
:100C4000495D31FD4052419302D0A9F7EACFB4E0AB
:100C5000A6959795879577956795BA95C9F7009763
:100C60006105710508959B01AC010A2E0694579504
:100C7000479537952795BA95C9F7620F731F841F5B
:100C8000951FA01D08952F923F924F925F926F92F1
:100C90007F928F929F92AF92BF92CF92DF92EF920C
:100CA000FF920F931F93CF93DF93CDB7DEB7CA1B8D
:100CB000DB0B0FB6F894DEBF0FBECDBF09942A88B8
:100CC000398848885F846E847D848C849B84AA8460
:100CD000B984C884DF80EE80FD800C811B81AA81ED
:100CE000B981CE0FD11D0FB6F894DEBF0FBECDBFB8
:080CF000ED010895F894FFCF17
:100CF80041583A2025640A0041593A2025640A00DF
:080D0800415A3A2025640A005B
:00000001FF
